:10000000000000308A0066280830B10027184A2016
:1000100021088400220827195920271D5B20200869
:10002000840026098417800520088400AD0CAC0CE0
:1000300000082604031C260680002120B10B14288A
:10004000622821088400220880060000272828282A
:1000500029282A282B2880060800AF01AE00FF308F
:10006000AE07031CAF07031C62280330AD00E63067
:100070003B202F28AD01FC3EAC00AD09031C4628F7
:10008000FF300000AC0703184128AC070000AD0F9B
:1000900040280800AE01AF015128AD0CAC0CAE0DEC
:1000A000AF0DFF3E03184D282F08AD002E08AC0001
:1000B000622880045E28FF3A80055F28FF3A841793
:1000C000800562288313831203130800831203132D
:1000D000831603178801890183128701880183161B
:1000E0000313850186010317880189013E308312BD
:1000F0000313B7007330B8007730B9003F30BA004F
:100100004030BB007930BC003830BD007930BE00D3
:100110003930BF004030C0005B30C1003F30C2000A
:100120005B30C300C4000130C9000230CA00043093
:10013000CB000830CC000E30CD000430CE00CF0113
:1001400004304F028A110A120318B1284F08453EA5
:100150008400003080000130CF078A110A12031C8E
:10016000A0284D084E07B500B601B60D350AA80007
:10017000D101510828028A110A12031C3D294E039D
:10018000CF00CF088A110A120319D6284F03453E23
:1001900084000008AA004F08453E84002A08800019
:1001A0000130CF028A110A120318C128FF304D070F
:1001B000AA00FF300318013EAB00AB088A110A12F7
:1001C000031DE82851082A028A110A12031CF42888
:1001D000831203135108373E84000008AA002A083E
:1001E000C5008A110A12F528C5010130D000293056
:1001F00050028A110A12031837294E03A900CF01B1
:100200004F0829028A110A12031C31294F08453E62
:1002100084000008D2000530A0000230A60005309E
:10022000A1000130A2000530A7005208AC008A01ED
:10023000042005111030AC008A110A12AC0B1E29E3
:10024000000005154F08493E840000088600023072
:100250008A012D2086010130CF078A110A12031C62
:1002600000290130D0078A110A12031CF728013037
:10027000D1078A110A12031CB9288A019F288A0112
:020280003F2914
:02400E00D220BE
:02401000FF3F70
:00000001FF
